:020000040800F2
:1000000008130020E5030008ED030008EF030008D3
:10001000F1030008F3030008F503000800000000E6
:10002000000000000000000000000000B502000811
:10003000F9030008000000006D030008D103000868
:10004000FF030008FF030008FF030008FF03000888
:10005000FF030008FF030008F3060008FF03000881
:10006000FF030008FF030008FF030008FF03000868
:10007000FF030008FF030008FF030008FF03000858
:10008000FF030008FF030008FF030008FF03000848
:10009000FF030008FF030008FF030008FF03000838
:1000A000FF030008FF030008FF030008FF03000828
:1000B000FF030008FF030008FF030008FF03000818
:1000C000FF030008FF030008FF030008FF03000808
:1000D000FF030008FF030008FF030008FF030008F8
:1000E000FF030008FF030008FF030008FF030008E8
:1000F000FF030008FF030008FF030008FF030008D8
:10010000FF030008FF030008FF030008FF030008C7
:10011000FF030008FF030008FF030008FF030008B7
:10012000FF030008FF030008FF030008FF030008A7
:10013000FF030008FF030008FF030008FF03000897
:10014000FF030008FF030008FF030008FF03000887
:10015000FF030008FF030008FF030008FF03000877
:10016000FF030008FF030008FF030008FF03000867
:10017000FF030008FF030008FF030008FF03000857
:10018000FF030008FF03000800F002F800F03CF84D
:100190000AA090E8000C82448344AAF10107DA45E2
:1001A00001D100F031F8AFF2090EBAE80F0013F0F8
:1001B000010F18BFFB1A43F001031847A8250000E0
:1001C000C8250000103A24BF78C878C1FAD8520771
:1001D00024BF30C830C144BF04680C6070470000C1
:1001E0000023002400250026103A28BF78C1FBD840
:1001F000520728BF30C148BF0B6070471FB502F0DF
:1002000077FA1FBD10B510BD01F0C0F81146FFF719
:10021000F5FF0FB400F00CF80FBC00F091FA01F0FC
:10022000A3F803B4FFF7EEFF03BC01F0A9F8000048
:1002300004B001F091F90448002101F0E1F901F066
:100240009DF901F091F800005427000880F3098817
:100250007047EFF309807047684680F309880448C7
:100260000078C00714BF0220032080F31488704771
:1002700014270008DFF818C0EFF305831B0618BF2A
:100280006047EFF31483DB0708BF604700DF704768
:10029000AB160008DFF818C0EFF305831B0618BF84
:1002A0006047EFF31483DB0708BF604700DF704748
:1002B00091180008EFF30980816911F8021CE1BB75
:1002C00090E80F1010B5E047BDE81040EFF3098C3F
:1002D0008CE80700214B93E80600914208BF704765
:1002E00041B91EF0100F16D11D49086820F0010019
:1002F000086010E01EF0100F06BF2CED108A0120E0
:10030000002081F825002CE9F00FC1F828C00CB4BA
:1003100001F068FE0CBC1A60D2F828C0BCE8F00FEF
:1003200092F8250000280EBF6FF0020E6FF0120E3B
:10033000BCEC108A8CF30988704710B5094A126822
:10034000914209D8084C54F8214090E80F10A0477A
:10035000EFF3098C8CE80F0010BD0000580000205E
:1003600034EF00E0D8130008D813000810B501F0EE
:10037000FDFCBDE81040154B93E80600914208BF14
:100380007047EFF3098C1EF0100F06BF2CED108A9A
:100390000120002081F825002CE9F00FC1F828C0C9
:1003A0000CB401F01FFE0CBC1A60D2F828C0BCE8E7
:1003B000F00F92F8250000280EBF6FF0020E6FF0CC
:1003C000120EBCEC108A8CF309887047580000208C
:1003D00010B501F0CFFECCE710B501F065F901F0E2
:1003E000C9FEC6E70948804709480047FEE7FEE71F
:1003F000FEE7FEE7FEE7FEE7FEE7FEE7FEE7FEE7D5
:1004000004480549054A064B7047000001050008ED
:1004100089010008080D002008130020080F0020A3
:10042000080F00200CB5002001900090764800686D
:1004300040F480307449086000BF7348006800F4DD
:10044000003000900198401C0190009818B9019864
:10045000B0F5A04FF1D16C48006800F4003010B145
:100460000120009001E0002000900098012846D172
:1004700065484030006840F0805063494031086072
:100480006248006840F44040604908605E480830B7
:1004900000685D49083108600846006840F4004083
:1004A00008600846006840F4A05008605848091FDA
:1004B0000860081F006840F08070091F086000BFD6
:1004C0005148006800F000700028F9D040F2057033
:1004D000504908604C480830006820F003004A4941
:1004E000083108600846006840F00200086000BF5C
:1004F00045480830006800F00C000828F8D10CBD11
:1005000010B54548006840F47000434908603E4813
:10051000006840F001003C49086000203A49083179
:100520000860394800683D490840374908603C4840
:10053000091D0860081F006820F48020091F08605A
:10054000002031490C310860FFF76CFF4FF000606C
:1005500031498039086010BD70B5002000220223A7
:1005600000240221284D08352D6805F00C0020B12B
:10057000042806D0082834D107E02A4D2A4E3560D9
:1005800033E02A4D284E35602FE01F4D2D1D2D687C
:10059000C5F380541C4D2D1D2D6805F03F0154B14D
:1005A000224DB5FBF1F5184E361D3668C6F3881698
:1005B00005FB06F209E01B4DB5FBF1F5124E361DA9
:1005C0003668C6F3881605FB06F20F4D2D1D2D6803
:1005D000C5F301456D1C6B00B2FBF3F5124E35609F
:1005E00003E0104D104E356000BF00BF064D0835CA
:1005F0002D68C5F303150E4E705D0B4D2D68C5407B
:10060000094E356070BD00000038024000700040A7
:1006100019544007003C024088ED00E0FFFFF6FE61
:10062000103000240024F4000000002000127A00A2
:100630000400002010B50121082000F0B1FC4FF4A7
:10064000704043490860012008710020487188719A
:100650000220C8713F4800F005FA10BD10B5012115
:10066000084600F09DFC0121880300F0F3FC4FF4E4
:100670008050374908600020087148718871C8713E
:10068000354800F0EFF90C21002000F0DAFD4FF4BE
:10069000805032490860002008710820487101200C
:1006A0008871084600F0DEF806202D490870000227
:1006B00000F05AF800202A49487088700120C8705C
:1006C000084600F056F810BD10B54FF470412148AF
:1006D00000F046FA2348006828B94FF410411D483D
:1006E00000F03CFA04E04FF4C0411A4800F036FA3A
:1006F00010BD10B502E0052000F022FF01211648D0
:1007000000F012FA0028F6D1322000F019FF154847
:100710000068002802DA00201249086011480068C9
:10072000002807DB0F48006808B9012000E000201E
:100730000C490860FFF7C8FF012000F004F910BD64
:1007400062B6FFF777FFFFF789FF00BFFEE7000003
:1007500020000020000C0240000002401400002095
:100760001C0000202800002032490143324A116059
:10077000704770B5002100230F22C4781CB32E4CA3
:10078000246804F4E064C4F5E064C4F30721C1F113
:100790000404E3B20A4144789C40E1B284781440F6
:1007A00021430C07210E254C05786155047804F08F
:1007B0001F050124AC4005786D11AD0005F1E02561
:1007C000C5F8004109E0047804F01F050124AC409D
:1007D0001B4D0678761145F8264070BD194A0A402F
:1007E0000243154B1B1F1A60704739B1124A121D84
:1007F00012680243104B1B1D1A6006E00E4A121DC0
:10080000126882430C4B1B1D1A607047042808D1E4
:100810004FF0E021096941F004014FF0E02211613D
:1008200007E04FF0E021096921F004014FF0E022D8
:10083000116170470000FA050CED00E000E400E0F3
:1008400080E100E080FFFF1F002041490860091D92
:100850000860091D0860091D08603E483C491431C4
:100860000860704700213A498279002A3AD00A4646
:10087000126803689A430B461A600A1D12680368DF
:100880009A430B1D1A60027911440A6803681A43DF
:100890000A602F4A0832126803689A432C4B0833C7
:1008A0001A601A1D126803689A43294B0C331A60A8
:1008B0004279102A0ED11A1F126803681A43244B7A
:1008C00008331A601A1D126803681A43204B0C3350
:1008D0001A600DE01E49427911440A6803681A4300
:1008E0000A6005E0027911440A6803689A430A60C5
:1008F00070470021016001710C214171002181715B
:1009000070471349103109680143114A10321160D0
:100910007047014600200E4A143212680A400AB19C
:10092000012000E000207047094914310860704739
:1009300001460020064A143212680A400AB101201A
:1009400000E0002070470249143108607047000041
:10095000003C0140FFFF7F0010B5044698488442E8
:1009600008D10121084600F086FB0021012000F09B
:1009700082FB76E09348844208D10121022000F0F6
:100980007AFB0021022000F076FB6AE08E48844268
:1009900008D10121042000F06EFB0021042000F0AA
:1009A0006AFB5EE08948844208D10121082000F0FA
:1009B00062FB0021082000F05EFB52E08448844284
:1009C00008D10121102000F056FB0021102000F07A
:1009D00052FB46E07F48844208D10121202000F0EC
:1009E0004AFB0021202000F046FB3AE07A4884428E
:1009F00008D10121402000F03EFB0021402000F002
:100A00003AFB2EE07548844208D10121802000F095
:100A100032FB0021802000F02EFB22E0704884424F
:100A200008D10121801500F026FB0021A01500F05F
:100A300022FB16E06B48844208D10121401500F0EA
:100A40001AFB0021601500F016FB0AE0664884429C
:100A500007D10121001500F00EFB0021201500F048
:100A60000AFB10BDF0B50A4600210023002400BF98
:100A70003DE0012505FA01F3156805EA03049C42EF
:100A800034D105684F000326BE40B5430560157993
:100A90004E00B5400668354305601579012D02D03A
:100AA0001579022D16D185684F000326BE40B54347
:100AB000856055794E00B540866835438560456848
:100AC00001268E40B5434560456896798E40B6B2A2
:100AD00035434560C5684F000326BE40B543C56039
:100AE000D5794E00B540C6683543C560491C10290C
:100AF000BFD3F0BD4FF6FF7101600021017141715C
:100B00008171C171704708B54FF480320092009A2C
:100B10000A430092009AC261C161009AC261C2692F
:100B20000092C269009208BD0246002013690B4082
:100B30000BB1012000E0002070470146086980B237
:100B400070470246002053690B400BB1012000E0C2
:100B5000002070470146486980B2704701837047A2
:100B6000418370470AB1018300E0418370474161CE
:100B7000704742694A4042617047F0B50023002443
:100B80004D07ED0E02FA05F3CE1000F1200555F8E1
:100B900026504E07F70E0F26BE40B543CF1000F18A
:100BA000200646F82750CE1000F1200555F82650B3
:100BB00045EA0304CE1000F1200545F82640F0BDBB
:100BC000000002400004024000080240000C024005
:100BD000001002400014024000180240001C0240B5
:100BE000002002400024024000280240F94800682A
:100BF00040F00100F74908600020F649083108601C
:100C0000F4480068F4490840F2490860F348091DB7
:100C10000860F348EF4984310860F0481038091D36
:100C20000860EC48006820F48020EA490860002051
:100C3000E8490C310860E7498C31086070470021B1
:100C4000E44A921C117011460870704710B50146B5
:100C50000022002300204A11012A02D1DD4C236822
:100C600008E0022A03D1DB4C7034236802E0D94C3F
:100C70007434236801F01F02012494401C400CB11D
:100C8000012000E0002010BD38B5002000900024B5
:100C9000002500BF3120FFF7D9FF05460098401C12
:100CA00000900098B0F5A04F01D0002DF2D0312077
:100CB000FFF7CCFF08B1012400E00024204638BD36
:100CC00001460020C34A106820F0F80040EAC10045
:100CD00010607047C349086070470021BD4A7032F8
:100CE00011701170012802D004280AD104E00121FA
:100CF000B84A7032117005E00521B64A70321170A1
:100D000000E000BF00BF7047B7490860704770B58A
:100D1000049C41EA82150126C6EB530645EA0645C6
:100D2000054345EA0465AB4E361D356070BDAD49DF
:100D300008667047820142EA0172A64B84331A604A
:100D40007047A8498866704710B5830143EA01637C
:100D500043EA02739F4C8834236010BDA1490867A1
:100D60007047A049C864704702460020994B083379
:100D7000186820F0EC6042EA01031843954B0833F1
:100D80001860704702460020924B0833186820F024
:100D9000784042EA010318438E4B083318607047CD
:100DA000014600208B4A0832106820F003000843F7
:100DB0001060704787480830006800F00C007047EA
:100DC00001460020834A0832106820F0F0000843F2
:100DD00010607047014600207E4A0832106820F4F7
:100DE000E05008431060704701460020794A0832FD
:100DF000106820F4604040EAC10010607047F0B510
:100E0000002100220024022500260223714F08370A
:100E10003F6807F00C0121B1042905D0082937D11A
:100E200005E0724F076036E0714F076033E0694FAD
:100E30003F1D3F68C7F38056664F3F1D3F6807F070
:100E40003F036EB16A4FB7FBF3F7DFF888C10CF1CF
:100E5000040CDCF800C0CCF3881C07FB0CF40CE09D
:100E6000624FB7FBF3F7DFF86CC10CF1040CDCF850
:100E700000C0CCF3881C07FB0CF4564F3F1D3F68A5
:100E8000C7F301477F1C7D00B4FBF5F7076002E064
:100E9000564F076000BF00BF4E4F08373F6807F04E
:100EA000F0010909534F7A5C0768D7404760494F02
:100EB00008373F6807F4E051890A4E4F7A5C47686B
:100EC000D7408760434F08373F6807F46041490BBC
:100ED000484F7A5C4768D740C760F0BD002100F4F6
:100EE0004072B2F5407F0AD13A4A0832116821F4C3
:100EF000F811414A02401143364A08321160354A1E
:100F000070321268C0F30B031A43324B70331A600D
:100F100070473549443908607047334940390860A3
:100F2000704736490860704701460020294A8C32D4
:100F3000106820F01F004A1E1043264A8C321060B1
:100F4000704701460020234A8C32106820F4F85084
:100F50004A1E40EA02201F4A8C3210607047014648
:100F600000201C4A8C32106820F4401008431060A6
:100F7000704701460020174A8C32106820F4400068
:100F800008431060704701460020124A8C321068F6
:100F900020F44030084310607047194908607047DA
:100FA00039B10C4A3032126802430A4B30331A60AE
:100FB00006E0084A303212688243064B30331A602A
:100FC0007047F9B1034A343212680243014B34339B
:100FD0001A601CE000380240FFFFF6EA10300024DF
:100FE0000030002000004742800E47420024F400F9
:100FF00000127A002C000020FFFCFF0F5C0147422A
:10100000E0114742854A12688243844B1A60704758
:1010100039B1824A121D12680243804B1B1D1A60AF
:1010200006E07E4A121D126882437C4B1B1D1A602B
:10103000704739B1794A0C3212680243774B0C334E
:101040001A6006E0754A0C3212688243734B0C3307
:101050001A60704739B1714A1032126802436F4BFF
:1010600010331A6006E06D4A1032126882436B4BEF
:1010700010331A60704739B1684A243A1268024343
:10108000664B243B1A6006E0644A243A12688243A5
:10109000624B243B1A60704739B1604A203A1268AB
:1010A00002435E4B203B1A6006E05C4A203A12681D
:1010B00082435A4B203B1A60704739B1574A1C3A59
:1010C00012680243554B1C3B1A6006E0534A1C3A17
:1010D00012688243514B1C3B1A60704739B14F4A2A
:1010E000143A126802434D4B143B1A6006E04B4A17
:1010F000143A12688243494B143B1A60704739B165
:10110000464A103A12680243444B103B1A6006E00C
:10111000424A103A12688243404B103B1A607047B3
:1011200039B13E4A1C32126802433C4B1C331A60F0
:1011300006E03A4A1C3212688243384B1C331A606C
:10114000704739B1354A203212680243334B20339D
:101150001A6006E0314A2032126882432F4B203356
:101160001A60704739B12D4A2432126802432B4B62
:1011700024331A6006E0294A243212688243274B3E
:1011800024331A60704739B1244A2C321268024362
:10119000224B2C331A6006E0204A2C32126882431C
:1011A0001E4B2C331A60704739B11C4A303212681A
:1011B00002431A4B30331A6006E0184A3032126884
:1011C0008243164B30331A60704739B1134A273ABD
:1011D00012780243114B273B1A7006E00F4A273A58
:1011E000127882430D4B273B1A7070470B484030F2
:1011F000006840F08070094940310860704701463E
:101200000020064A283A12680A400AB1012000E08C
:101210000020704701492639087070473438024071
:1012200010B501218803FFF76AFF00214FF48040C9
:10123000FFF765FF10BD1C49086070471B49086235
:10124000704730B500228B071C0F0F2303FA04F2FE
:10125000154B08338C1053F824309343124C083448
:101260008D1044F8253023468C1053F824308C0719
:10127000240F00FA04F423430B4C08348D1044F877
:10128000253030BD0949DC310860704708490860E5
:101290007047002004492031096801F4807109B1C8
:1012A000012000E000207047003801400000274284
:1012B0000004274200BFFEE7012806D0022805D01F
:1012C000032804D0042804D102E003E002E001E096
:1012D00000E000BF00BF00BFFEE71A4810B500786D
:1012E00048B101F0CBF830B1174900EB400001EBF9
:1012F0004010603810BD154810BD154A10B5116971
:101300000346082900D3FEE7124800EB0110491CF0
:101310001860116100F082FC012010BD09490978B4
:10132000002905D000684FF6FF71DFF82CC000DF00
:10133000704704490978002903D00068DFF81CC011
:1013400000DF70475100002020090020A40C00207D
:101350003C000020C00B0020051D00082D1C0008CB
:1013600000487047A40C002010B50446AFF300807D
:101370002046BDE81040FEF754BF704770477047E5
:1013800001491820ABBEFEE7260002007546FFF7B4
:10139000E7FFAE4605006946534620F00700854644
:1013A00018B020B5FFF72CF8BDE820404FF000063C
:1013B0004FF000074FF000084FF0000B21F007013D
:1013C000AC46ACE8C009ACE8C009ACE8C009ACE880
:1013D000C0098D46704770470000000010B5002A14
:1013E00006DA22F00042D21D22F00703102203E0A9
:1013F000D21C22F003030C2213B19C188C4201D999
:10140000012010BD024401448360C0E90021C91AD3
:10141000D018884202D810600246F9E70020106018
:1014200010BD000008480068C0010BD507480068DF
:10143000C00707D0054880380068002802DA044950
:101440000120087070470000FCED00E0800E00E015
:10145000740000204FF06042D36F002BFCD0036B70
:10146000D367D36F002BFCD0C07840EA0120A2F8EC
:101470007C0070474FF06041CA6F002AFCD081F8B1
:101480007C0070470EB5802200B109B110460AE019
:1014900001780129FAD101A900F020F8042801D02F
:1014A000002000E01020DDE9011203B000BD70B59E
:1014B0000D46040003D012B92078012801D0802005
:1014C00070BD204600F0A4FA28B12946204600F05D
:1014D00030F8002070BD812070BD000010B50446BA
:1014E0008089002824D0608904EB800000690860AE
:1014F000606840B16078022805D10021204600F0E4
:1015000083FC00F071FC04F10C0000BFD0E85F1F09
:10151000491E8AB2C0E8512F0029F7D16089401CCA
:1015200080B26081E189884201D10020608104207D
:1015300010BD10B500F068FCBDE8104000F054BCD0
:10154000EFF3058109B182207047DFF808C000DFA2
:10155000704700008D240008EFF3058008B1822059
:101560007047EFF31480C00703D0DFF80CC000DF32
:10157000704700F095BF0000A124000888B0EFF389
:10158000058010B1822008B07047EFF3148010F08E
:101590000301134806D001291BD0022911D00329C9
:1015A00019D113E008A981F309880078C0070BD08E
:1015B0005FF0020080F31488BFF34F8FBFF36F8F8B
:1015C00009E00078C00706D10320F3E70078C007E0
:1015D00001D0FF20D7E7DFF80CC000DFD3E7000021
:1015E0001427000811250008EFF305820AB1FFF760
:1015F00049BFDFF808C000DF704700007D25000804
:10160000EFF305820AB100207047EFF31482064B16
:1016100002F001025B781A4303D0DFF810C000DF4C
:10162000704700F0C9BF000050000020B925000835
:10163000DFF80CC000DFDFF80CC000DFFEE70000C1
:101640002926000845260008DFF804C000DF70479F
:101650007D260008094C4FF0FF3529462068FFF72A
:10166000C3FF02460846102AF7D1FFF7EDFF002816
:10167000F3D0024608469047EFE700004000002004
:10168000074801684FF0E020416100218161072196
:1016900001610448016841F07F41016040177047D3
:1016A0001027000820ED00E0704750E8001F31B11E
:1016B0000B6840E80032002AF7D108467047BFF3B4
:1016C0002F8FFAE710B568B161B10B3121F0030239
:1016D000016844680B1A1B1B934205D2084609682F
:1016E0000029F5D1002010BD210007D02118036882
:1016F000C1E90032016001F1080010BD426008300C
:1017000010BD000070B50D46002812D04FF6FF71D5
:10171000084C884204D222680146104600F0A2FB21
:1017200020684570044800F0DDF8BDE8704000F026
:101730006BBC70BD58000020740C00200F4810B521
:101740000D4942680E480B680068934204D00A6055
:10175000CB88421E1A448A808A8880B282420AD18B
:1017600000200860054800F0BDF80146BDE81040C3
:10177000024800F09BBB10BD6C000020740C0020E0
:101780006800002070B5194DE86800282CD0A88AA0
:10179000401EA882002621E0A06838B1616841603F
:1017A000606810B1A16881606660A6600F4821463C
:1017B000183800F07BFBA08AA8826078042804D146
:1017C0000B49E08A09880844A08201206070E06823
:1017D000E860E06808B10561E6602661A88A002833
:1017E00002D1EC68002CD7D170BD00008C0C002019
:1017F0006800002070B504000FD00D4DA1780126BF
:101800002868827891420CD900F06CFB28684670F9
:101810002046BDE8704000F0F7BB064800F062F8D3
:10182000F7E766702146BDE87040024800F03EBB15
:1018300058000020740C00200321FFF763BF000054
:1018400010B50446008B084320836278618B062A1A
:1018500018D0052A19D1084217D001EA0002628384
:1018600088432083204600F077FB01206070628B64
:101870000821204600F068FB2146BDE810400348DF
:1018800000F014BB31EA0002EAD010BD740C002055
:10189000814202D342688A4201D80120704702681F
:1018A0000A60BFF35F8F50E8003F0A689A42F6D1A2
:1018B00040E80012002AF2D10020704768B161B1FF
:1018C0000022083902E00246006830B18842FAD1AD
:1018D0002AB1006810600020704701207047002185
:1018E0004160F8E70146406842684A600B78002290
:1018F000022B05D0012B03D0032B01D0426070478F
:1019000043680BB19960426082607047810700D0E4
:101910000020704770B50446002015462070012253
:101920006270A17084F824106060A060E0602061A3
:101930002062A082E0822083608384F82500E08C0E
:1019400018B90548FFF7B1FEE06229462046BDE818
:10195000704000F01DB80000F001002008B1082917
:1019600001D2012070470144091F002201600A6072
:10197000426010467047000003480021016003499F
:101980000988C180704700006C000020042700080F
:1019900070B5C28C1C4D930802D12A88C2F38D0306
:1019A000C26A02EB8302540700D5121F4FF0807405
:1019B00042E9021400242646B2F1400242F82460B3
:1019C000641C0E2CFAD3C469146282620163296814
:1019D000C90014D5112B12D94FF0FF31103B11EB78
:1019E00053014FF0CC3305D042F8043C42F8083D97
:1019F000491EF9D1C16A121F8A4200D91360C06A18
:101A00000249016070BD000000270008A52E5AE2BF
:101A1000C1898089081A7047012202700022427031
:101A20008270426002814281103982818908C181BD
:101A3000704700002DE9F041044640680E464FF023
:101A4000000804F10C05E8B36078012701283ED0B6
:101A5000022813D003285CD10846FFF726FE0500B4
:101A600057D02046FFF73EFF0446294600F066FAAD
:101A70006770204600F070FA214621E02046FFF70B
:101A800031FF0646002100F059FA2189F06904EB84
:101A900081010861D5E85F0F401C81B2C5E8501F85
:101AA0000028F7D12089401C80B22081E18988423A
:101AB00001D1A4F808807770304600F04DFA314625
:101AC000174800E00CE0BDE8F04100F0EFB9204617
:101AD000FFF708FF04463246102100F035FAC7E749
:101AE000A089E189884216D2208904EB8000066132
:101AF000D5E85F0F401C81B2C5E8501F0028F7D120
:101B00002089401C80B22081E189884201D1A4F85B
:101B10000880BDE8F081BDE8F0410320FFF7CCBBB1
:101B2000740C002070B50446808915460026C0B3A9
:101B3000608904EB8000006908606089401C80B205
:101B40006081E189884200D16681606810B1607867
:101B500002280BD014F10C04D4E85F0F401E81B2B0
:101B6000C4E8501F0028F7D1002070BD2046FFF7C1
:101B7000B9FE0546002100F0E1F92189E86904EB8E
:101B8000810108612089401C80B22081E18988425E
:101B900000D12681284600F0DFF92846FFF72AFE0B
:101BA000E2E7FFE73DB10B48626801682AB12046D1
:101BB00000F07CF908E0012070BD616001684E60B2
:101BC000006884600120607008212846FFF79AFDB4
:101BD000F1E7000058000020002814D0411C13D069
:101BE0000C4A4FF6FE7190420CD800EB4002C2EB5B
:101BF000C0120948036803EBC202521EB2FBF3F0A5
:101C0000884204D9084670474FF6FF70704780B28B
:101C10007047000000093D002027000803210170E3
:101C20000021418041608160C16070472DE9F04131
:101C30000446408820B1314DA1682A68914202D003
:101C4000FF20BDE8F081401E0004000C608053D1ED
:101C50002968086AA04209D1E068086208E0C26801
:101C6000A24202D1E268C26002E010460028F6D12A
:101C700091F824000A6A06E053681BB19B788342FE
:101C800000D91846D268002AF6D18870DFF8708033
:101C90006168012611B32046FFF724FE07460021A4
:101CA00000F04CF9384600F057F96680A760386AB2
:101CB000E0603C622968D8F804008A788078824223
:101CC00001D3384616E00E4800F0F0F839460C48CB
:101CD00000F0ECF8286846707E700AE0D8F804102E
:101CE0008A782968824207D9054800F0DFF8286819
:101CF00046700020FFF77EFD0020A2E7580000207C
:101D0000740C002070B5184D0E46044641882868B2
:101D100039B1A168814209D16088401C60800020EF
:101D200070BDA060016AE1600462F5E776B18A786F
:101D30008078824203D28870A06800F0DDF8606885
:101D400030B12046296800F0B1F808E0012070BDEC
:101D5000286860602968002048602868846009213C
:101D60003046FFF7CFFCF1E75800002070B51B4864
:101D7000012102685170006800F0B4F8184D6C78C9
:101D800018E000BF05EBC40148680278EAB1012AF7
:101D900020D000F00DF9E878641C844200D10024C2
:101DA0000F48801CD0E84F1F491EC9B2C0E8421F2F
:101DB000002AF7D1A8780028E4D16C700948FFF711
:101DC00091FDBDE8704000F01FB9098989B2FFF7A5
:101DD00037FDE0E78968FFF72DFEDCE758000020BB
:101DE00060080020740C00200548017811B1012121
:101DF0004170704703494FF0805008607047000001
:101E00006000002004ED00E0F0B4154DAB1CEE784E
:101E10004FEA0507D3E84F2FB24202D1BFF32F8F0D
:101E200011E0521CD4B2C3E8424F002AF2D100BFE5
:101E3000D7E84F2F541CB44200D10024E4B2C7E8C5
:101E4000434F002BF4D1EB78934205D905EBC20246
:101E5000C2E90101F0BC7047F0BC0220FFF72CBAC8
:101E600060080020104A10B5D368ABB113469B8AB6
:101E700003E08CB12246A48A2344D4688B42F8D371
:101E8000C460D0600261C46804B12061591A8182C3
:101E9000908A401A908210BD0024C460D060C91A94
:101EA00002619182848210BD8C0C002030B50278D2
:101EB0000023022A03D0012A01D0032A00D10123E2
:101EC0008C7800E01046426812B19578A542F9D2AC
:101ED0004A6041601BB102B19160886030BD002052
:101EE000FBE7000003494A684260002282604860C4
:101EF00070470000740C002010B5836804462BB9AD
:101F0000607801280ED1084B03E09B681878002800
:101F1000FBD0204600F034F82146BDE810401846BA
:101F2000FFF7C4BF10BD0000740C002090F825100E
:101F3000806A09B1603070472030704710B50C4698
:101F4000FFF7F4FF046010BD70B515460C46FFF7AF
:101F5000EDFFC0E9004570BD10B5016900290ED044
:101F6000C268CA60C36800223BB18B8A848A23445A
:101F70008B82C3681961C26000E08A82026110BD71
:101F8000816839B142684A604168002901D080689F
:101F900088607047054906E04A68824202D140687D
:101FA0004860704711460029F6D17047740C002034
:101FB00010B5416881B1FFF795FC0446FFF7CCFFEF
:101FC0000120607001462046FFF7B8FF2146BDE8BA
:101FD00010400348FFF76ABF4188491C418010BD8B
:101FE000740C002006480068D0E90A10814203D32F
:101FF00000680449884202D00120FFF75DB97047AC
:1020000058000020A52E5AE207490222486042707B
:10201000064A1278002A05D006C98A4202D0C07842
:10202000FFF728BA70470000580000207400002015
:1020300070B5FFF7F7F900200446204A204902E076
:1020400042F82040401C0B889842F9D31D483422A6
:1020500001881D48FFF7C2F91C48008880B240F093
:1020600000421B4801681B48FFF7B8F91A480822CC
:1020700001881A480068FFF7B1F9194DFF20194A85
:10208000E870EC8400212846FFF744FC1648042140
:102090000170446015480170C46004618482144872
:1020A0001549056002206870124804704470097870
:1020B000C170BDE87040FFF75FBC0000E40800207D
:1020C000FC260008282700087800002000270008C8
:1020D0002C270008F00100205027000848000020AD
:1020E000400C0020B5120008740C00208C0C00205D
:1020F0005800002060080020342700081B4810B555
:10210000016841F47F01016000684FF07F4101EAFE
:1021100000201649C0431439B0FA80F00968C0F1B4
:102120000800C1F30221814200D3481C0F49091F56
:102130000B686FF08072824063F317020A60FFF74A
:102140009FFA0B49002808600EDB00F1E021FF2216
:1021500081F8002400F01F02012191404009800015
:1021600000F1E020C0F8001110BD000020ED00E0FB
:10217000640000200C4810B502680121517000680D
:10218000FFF7B0FEFFF7DAFA08480168491C016062
:10219000FFF7F8FA00F07EFA0548FFF7A3FBBDE869
:1021A0001040FFF731BF00005800002068000020F9
:1021B000740C0020002805D0810702D10178002985
:1021C00000D000207047000030B50B4C002362683F
:1021D00005E095688D4204D813461268491B002A11
:1021E000F7D10260816012B19568691A91600BB1F4
:1021F000186030BD606030BD500000202DE9F04116
:102200001E46174680460D4611F0FF0F00D14D1CAB
:102210001848FFF74AFA041E16D0280AE762E0843D
:10222000E9B242462046E661FFF774FB01251248F9
:10223000124905E000EB850252F8042C32B16D1C06
:102240000A889542F6D90020BDE8F081002DFAD029
:1022500000EB850040F8044C0948E570007818B19F
:1022600001212046FFF7F6F82046FFF7C3FA28467B
:10227000EAE7000078000020E4080020FC260008BF
:10228000740000202DE9F05F584DDFF85891DFF819
:10229000588129684FF0010A002618B1CA78AB4668
:1022A000824243D14E70FDF7D4FF29688862FFF760
:1022B00099FE2868046A1FE06068C0B12046FFF7F5
:1022C00011FB07460021FFF739FE3846FFF744FEB1
:1022D00087F801A039464648FFF7E8FDE168A4F811
:1022E00002A0A760386AE0603C620C4604E0E06847
:1022F0006680A660E6600446002CDDD12868C278BE
:1023000008EB820141F8046CC16A3A48FFF7C0FA51
:102310002868C66299F8001011B10021FFF79AF8F9
:1023200035482968FFF7B4FA2E6056E0334909882A
:1023300088420CD808EB800858F8045C3DB1284668
:10234000FFF71EFE2846FFF707FE2C6A22E0FF205B
:10235000BDE8F09F6068C0B12046FFF7C3FA0746AA
:102360000021FFF7EBFD3846FFF7F6FD87F801A0E7
:1023700039461F48FFF79AFDE168A4F802A0A7605C
:10238000386AE0603C620C4604E0E0686680A66063
:10239000E6600446002CDDD148F8046C1548E96A73
:1023A000FFF776FAEE6299F8000018B1002128468E
:1023B000FFF750F829461048FFF76AFA0C48DBF897
:1023C000001040688B7882789A4209D981F801A080
:1023D0000748DBF80010FFF769FD0020FFF70AFA55
:1023E0000020B5E774000020E40800205800002019
:1023F000740C0020F001002078000020FC2600086A
:1024000070B51A4D80B11A4A128890421FD8194AE5
:1024100002EB800050F8044CCCB1A17084F8241079
:102420002868A04205D014E028688170286880F8E8
:102430002410114840688078884215D90E482968D0
:10244000FFF734FD29680120487000200AE0FF20D2
:1024500070BD2046FFF750FD6078012804D1064882
:10246000FFF740FAFFF7C6F9002070BD58000020C2
:10247000FC260008E4080020740C002002480068D4
:10248000002800D0C07870475800002010B5002800
:1024900004D0FFF7A1FBFFF7CFF9402010BD0000EB
:1024A00010B5134C207860B91248400705D1124886
:1024B00001681048FFF752FA08B1852010BDFFF7F8
:1024C000B7FD0E49FF2009688870207858B90021AF
:1024D0000B4800F041F80B49086000210A4800F061
:1024E0006BF80A490860012020700020607010BD60
:1024F00050000020B00600203027000858000020BF
:102500004827000840000020382700083C00002031
:1025100070B50F4D687808B1002070BD0D4C206873
:1025200090F824100020FFF76BFF2068C178FF2986
:1025300003D1816A203181F30988616811B9606033
:1025400000202060FFF7DAFD01206870E4E700005A
:10255000500000205800002010B5040005D021686C
:1025600019B1606808B102780AB1002010BD890075
:10257000103189B2FFF750FA606810BD3EB5040013
:102580000D464FF0800012D0217801290FD1284646
:10259000FFF722FB0246204601A9FFF7C3FA0128F4
:1025A00001D0102003E00DB1402000E00020DDE963
:1025B000011203B030BD000070B50E4604002BD0F0
:1025C000206848B3B4F9040010F1030F24DB03289A
:1025D00022DCE16829B11148FFF774F805001BD02F
:1025E00000E00025B4F90400E168001D40EA012183
:1025F00033462A462068FFF701FE40B1084901EB47
:102600008000084950F8040C826A516370BD1DB106
:1026100029460248FFF752F9002070BDB00600209D
:10262000E40800203116000810B5FFF727FF002846
:1026300004D0034901EB800050F8040C10BD0000E9
:10264000E408002010B5FFF7B5FD18B1C18C19B131
:10265000C46A02E0802010BD0024C078FFF712FE9B
:10266000FF2806D01CB121460348FFF727F90020B8
:1026700010BD812010BD0000B006002010B5FFF78E
:1026800045F920B141690A680169104610BD002072
:10269000014610BD2DE9F041134E7468002C1CD08A
:1026A000A068124F401E4FF00108A06012E02546BE
:1026B00024687460002229463868FEF7F8FE10B1DD
:1026C0000420FEF7F9FD6879012808D085F8048018
:1026D000002C02D0A0680028E9D0BDE8F08128468F
:1026E000E968FFF771FDF3E750000020400000208B
:1026F0004FF04070E1EE100A704700000700000044
:10270000C800020105000100001BB7000C0000001A
:10271000DF2E000001000000020001005100040053
:10272000E80300000000000078010000C004000081
:10273000B001000010000000551600080200000063
:1027400001000000C8000000040000000009002093
:102750000000000041070008000000000100000028
:10276000C800000084270008000000207800000056
:10277000C4010008FC270008780000209012000027
:10278000E0010008007A030A0000000000000000D9
:102790000102030406070809000000000000000011
:1027A000000000000000000000000000FFFFFFFF2D
:1027B00000000000010203040102030406070809E7
:1027C0000000000000000000000000000000000009
:1027D00000000000000000000000000000000000F9
:1027E00000000000000000000000000000000000E9
:0C27F000000000000000000000000000DD
:040000050800018965
:00000001FF
