:020000040800F2
:1000000078060020290200083102000833020008A7
:10001000350200083702000839020008000000001D
:100020000000000000000000000000003B0200088B
:100030003D020008000000003F020008F90300082C
:10004000430200084302000843020008430200087C
:10005000430200084302000843020008430200086C
:10006000430200084302000843020008430200085C
:10007000430200084302000843020008430200084C
:10008000430200084302000843020008430200083C
:10009000430200084302000843020008430200082C
:1000A000430200084302000843020008430200081C
:1000B000430200084302000843020008430200080C
:1000C00043020008430200084302000843020008FC
:1000D00043020008430200084302000843020008EC
:1000E00043020008430200084302000843020008DC
:1000F00043020008430200084302000843020008CC
:1001000043020008430200084302000843020008BB
:1001100043020008430200084302000843020008AB
:10012000430200084302000843020008430200089B
:10013000430200084302000843020008430200088B
:10014000430200084302000843020008430200087B
:10015000430200084302000843020008430200086B
:10016000430200084302000843020008430200085B
:10017000430200084302000843020008430200084B
:10018000430200084302000800F002F800F03CF8C7
:100190000AA090E8000C82448344AAF10107DA45E2
:1001A00001D100F031F8AFF2090EBAE80F0013F0F8
:1001B000010F18BFFB1A43F001031847700300003A
:1001C00090030000103A24BF78C878C1FAD85207CB
:1001D00024BF30C830C144BF04680C6070470000C1
:1001E0000023002400250026103A28BF78C1FBD840
:1001F000520728BF30C148BF0B6070471FB500F0E1
:100200008FF91FBD10B510BD00F031F81146FFF792
:10021000F5FF00F055F900F04FF803B4FFF7F2FFD7
:1002200003BC00F057F80000094880470948004720
:10023000FEE7FEE7FEE7FEE7FEE7FEE7FEE7FEE796
:10024000FEE7FEE704480549054A064B70470000F3
:1002500011040008890100087800002078060020B9
:10026000780200207802002070477047704775467A
:1002700000F02CF8AE4605006946534620F0070012
:10028000854618B020B5FFF7DDFFBDE820404FF0F0
:1002900000064FF000074FF000084FF0000B21F070
:1002A0000701AC46ACE8C009ACE8C009ACE8C0093D
:1002B000ACE8C0098D46704710B50446AFF3008026
:1002C0002046BDE81040FFF7A8BF00000048704777
:1002D0001800002001491820ABBEFEE726000200EE
:1002E000704700000748006840F0080005490860B2
:1002F0004FF0AA40044908600020091D0860091D4C
:100300000860704730380240000C02400CB50020F5
:10031000019000903448006840F480303249086011
:1003200000BF3148006800F4003000900198401C84
:100330000190009818B90198B0F5A04FF1D12A4862
:10034000006800F4003010B10120009001E00020AE
:1003500000900098012846D123484030006840F0C2
:1003600080502149403108602048006840F44040F6
:100370001E4908601C48083000681B4908310860A5
:100380000846006840F4004008600846006840F4F1
:10039000A05008601648091F0860081F006840F058
:1003A0008070091F086000BF0F48006800F00070EF
:1003B0000028F9D040F205700E4908600A4808305C
:1003C000006820F00300084908310860084600680A
:1003D00040F00200086000BF03480830006800F0E9
:1003E0000C000828F8D10CBD003802400070004015
:1003F00019544007003C024004480088002804DDEE
:1004000002480088401E0149088070470000002013
:1004100010B51548006840F470001349086013488F
:10042000006840F001001149086000200F490831C0
:1004300008600E4800680E4908400C4908600D48E5
:10044000091D0860081F006820F48020091F08604B
:10045000002006490C310860FFF758FF4FF000609C
:1004600001498039086010BD88ED00E00038024085
:10047000FFFFF6FE103000240349088000BF024948
:1004800009880029FBD1704700000020FFF72AFFF0
:10049000002411E004F5FA740848006840F4C040F4
:1004A00006490860A0B2FFF7E7FF04480068034967
:1004B0000860A0B2FFF7E0FFECE70000140C024078
:1004C000144800684FF47A72B0FBF2F1481EB0F1A4
:1004D000807F00D31BE0481E4FF0E0225061501790
:1004E0000F22002804DB13071C0E0B4B1C5406E0E4
:1004F00013071D0E094B00F00F04241F1D5500BFEC
:1005000000204FF0E02290610720106100BFFFF74C
:10051000BDFF00000400002000E400E018ED00E052
:100520004FF04070E1EE100A704700004C050008E3
:100530000000002018000000C40100086405000845
:100540001800002060060000E00100080000000024
:10055000006CDC0200000000000000000102030447
:040560000607080979
:0400000508000229C4
:00000001FF
